:10000000703200203D3B0000393B0000393B0000CE
:1000100000000000000000000000000000000000E0
:10002000000000000000000000000000393B00005C
:100030000000000000000000393B0000393B0000D8
:10004000393B0000393B0000393B0000393B0000E0
:10005000393B0000393B0000393B0000393B0000D0
:10006000393B0000492500005925000069250000A2
:10007000792500008925000099250000290A000043
:10008000390A0000490A0000F10A0000010B0000D3
:10009000110B0000210B0000310B0000A520000017
:1000A000393B0000393B0000393B0000393B000080
:1000B0000000000010B5064C2378002B07D1054B3B
:1000C000002B02D0044800E000BF0123237010BDC4
:1000D000BC00002000000000305B0000084B10B5A1
:1000E000002B03D00749084800E000BF0748036819
:1000F000002B00D110BD064B002BFBD09847F9E731
:1001000000000000C0000020305B0000305B0000F9
:100110000000000000B583B001AB80221A700A789D
:100120005A704A789A708A78DA701900014B9847A9
:1001300003B000BDD93A000001680722CB691A421A
:10014000FCD17047F0B5D6464F464646C0B58AB09A
:1001500006000F00140031600800A04B9847A04A29
:10016000116A851C0123AB400B43136209A9237B51
:100170000B701430C5B228009A4B984728009A4B50
:100180009847207B0021994B98473B681C209B0790
:1001900005D50AB01CBC90469946A246F0BD3B6806
:1001A0001738DB07F5D430688C4B99469847050023
:1001B0008F49904B9847AD008F4BEE50002333761C
:1001C000737600257383B3832522B55433621433C9
:1001D0003B60336898461800C8478146802308AAC8
:1001E0001370557001239370D570E069276A002859
:1001F00000D1AFE008AB1870022308AA5370000CBE
:10020000C0B211007D4B9847002F00D1A7E008AB8A
:100210001F70022308AA53703F0CF8B21100774BED
:100220009847A38AF380E38A3381237E8022002BC0
:1002300004D1734B9B789B07DB0FDA01A16823691C
:100240000B4313432422A25C002A02D08022D20551
:100250001343A26A13432C22A25C002A03D18022FA
:100260009204914202D18022120513432D22A25CF6
:10027000002A02D08022120413432E22A25C002AFC
:1002800002D08022D20313434246126813434246EF
:10029000136080235B00536048461430C0B2594B52
:1002A00098470790FA239B0022685A439146636857
:1002B0009A46554DA847009001914B465800A847D3
:1002C00002900391208EA847049005914F4F504A09
:1002D000504B00980199B84702000B00049805990B
:1002E000B8474D4E00224D4BB0470490059148460B
:1002F000A84702000B0004980599B84702000B00BC
:10030000474D00980199A847029A039BB0470022E5
:10031000444BA847029A039B434DA847434B984739
:10032000050080239B04A2689A421ED0030040204F
:10033000FF2D00D92DE700240020FF251D402406B5
:1003400025430004FF231B04184005434346DD609A
:1003500000201EE700214046354B98474AE701211F
:100360004046334B9847070051E7FA26B6005346FC
:100370005E430098019902000B00274CA0470090B3
:1003800001913000204B984700222A4BB8470200C9
:100390000B0000980199244CA0470022214B204CCF
:1003A000A047224B9847041E0CD031000798224BDF
:1003B00098470238001B2B00FF2D0CD8FF28BCD912
:1003C0004020E6E67100481E079B9C4660441A4B9D
:1003D00098470138EFE74020DBE6C046A124000043
:1003E00000040040E139000055390000DD22000022
:1003F000F1070000DD2400008C0F0020D93A000036
:1004000000200041FD3900004D560000B94A0000AF
:1004100095D626E80B2E113E313E00000000244008
:10042000B94F00000000F03F51440000E5550000C6
:100430002923000000000840C53C000003681A7E24
:10044000920707D502221A765B8B9B074120DB17A8
:10045000184070475A8B520706D55968C02292023D
:100460000A435A601820F4E70020F2E730B502682A
:10047000002301240225117E21420BD1117E294245
:1004800006D101339BB201899942F4D8122002E0CF
:10049000002000E0002030BD10B5046862688023B1
:1004A000DB02134363606162024B984701232376AA
:1004B00010BDC0466D040000F0B5DE4657464E46FE
:1004C0004546E0B583B00600894605684C882B6830
:1004D0001B01DB0F9A464B7A002B2BD16B68584AD5
:1004E00013406B604B461B7A002B27D14B461B8871
:1004F0005B004A46527A92031343012213436B6214
:100500003000504B984701905346002B03D04B4688
:100510005B88012B3BD06B68494A13406B60019BA1
:10052000002B3AD0019803B03CBC90469946A246B5
:10053000AB46F0BD897A444B9847CFE74B461B88C2
:100540005B004A46527A92031343802212021343FD
:100550006B6230003B4B984701906B68384A134000
:100560006B600028DED13000384B9847019000289E
:10057000D8D14B461B881B0A782213435B004A469E
:10058000527A920301210A4313436B62B8E76A6807
:100590008023DB0213436B60C1E730002B4B98478D
:1005A00001900028BED1013CA4B28046284B9B4656
:1005B00015E0012C20D03000264B984743465F1CA5
:1005C000BFB22823EB5C4A46526841465354300080
:1005D0001C4B9847013CA4B2002815D1B8465C4595
:1005E00014D06B8B9B0627D5F37A002BE3D05346B0
:1005F000002BDED1002CDED16A688023DB0213439E
:100600006B60013CA4B2EAE7B8460190B37A002BD4
:1006100009D130000F4B98472823EA5C4B465B68B2
:1006200041465A547EE730000A4B98476A68C02317
:100630009B0213436B60ECE74123019372E7C046D2
:10064000FFFFFBFF6D040000990400003D04000063
:10065000FFFF00003901000010B5838B9BB205221B
:10066000002B01D0100010BD01338372C372024B06
:1006700098470200F6E7C046B90400000168072267
:10068000CB691A42FCD1704770B504000668326825
:10069000458B838BED1AADB2838B013B9BB2838379
:1006A00013011DD5C37A002B03D0838B9BB2012B82
:1006B00010D0A38B9BB2002B02D1A37A002B1CD1AC
:1006C0002000124B9847236A5D192823F35CDBB2A4
:1006D0002B7070BD72688023DB0213437360E8E700
:1006E000C37A002BE5D0838B9BB2002BE1D17268DB
:1006F0008023DB0213437360DBE72000034B984742
:100700007268C0239B0213437360D9E77D06000023
:1007100070B5040005686B8B5B0703D51E2225238B
:10072000C25470BD468B838BF61AB6B2838B013BE5
:100730009BB28383044B9847236A9E193378DBB2BC
:100740002822AB54EDE7C0467D06000070B50500D9
:100750000C0006684B7A002B1AD17368134A1340B9
:10076000736063682B626388AB8300222423EA549E
:1007700005320133EA54223BB375237A002B0BD1A7
:1007800023885B00627A920313437362002070BD7A
:10079000897A074B9847E0E723885B00627A9203E7
:1007A00013438022120213437362EFE7FFFFFBFF44
:1007B00099040000931C9B00C3185960037E01211B
:1007C00091400B43DBB203767047000010B5838B7A
:1007D0009BB20522002B01D0100010BD01338372A3
:1007E000C372024B98470200F6E7C0464D0700006F
:1007F00070B58000754BC45825682B681B01DA0F53
:10080000637E267E1E40638B9BB2002B03D1A38B9D
:100810009BB2002B23D1638B9BB2002B08D0A38B00
:100820009BB2002B04D12533E35C052B00D16DE096
:10083000638B9BB2002B24D0A38B9BB2002B20D0C8
:100840006B8B9B0600D581E0002A04D0A38B9BB262
:10085000012B00D17AE041222523E25411E02B7EC6
:10086000DB0707D501232B766B8B9B072ED5412207
:100870002523E254A38B9BB263832523E35C052BE2
:1008800038D0638B9BB2002B07D0A38B9BB2002B7D
:1008900003D12533E35C052B64D02523E35C052BD2
:1008A00013D02523E35C002B0FD003232B750023EB
:1008B0006383A3832533E35C412B03D0A37A002B0E
:1008C00000D075E0730700D57BE070BD6B8B5B07D4
:1008D000D0D518222523E2540023A383A37A002B2A
:1008E000C8D020003A4B98476A68C0239B02134344
:1008F0006B60BFE71F33E35C002B03D02000354B58
:100900009847BEE72000344B9847BAE71F33E35CB3
:10091000002B00D08CE703332B7500236383253332
:100920000022E254A37A002B07D101232B76F30790
:10093000A7D5E36820009847A3E72000244B9847F9
:100940006A68C0239B0213436B60F0E72423E35CD7
:10095000002B03D12000204B984792E720001D4B2D
:1009600098478EE71F33E35C012B96D12B7E9B07C4
:1009700001D502232B7603232B75002363832533B4
:100980000022E254B30703D52423E35C012B0BD0F0
:10099000F30700D481E72423E35C002B00D07CE73D
:1009A000E3682000984778E723692000984774E7B8
:1009B0002000074B98476A68E023DB0213436B6013
:1009C00080E76369200098477FE7C0468C0F0020CE
:1009D0007D0600008906000011070000F0B5C6463C
:1009E00000B580000E4BC7583B68DE6ABB6B7A6B64
:1009F00013401E4000240B4B984602E00434302C78
:100A00000AD04346E5583542F8D03B195B683800B8
:100A100098473B68DD62F1E704BC9046F0BDC046F4
:100A2000200E00204C58000010B50020014B9847C4
:100A300010BDC046DD09000010B50120014B9847EC
:100A400010BDC046DD09000010B50220014B9847DB
:100A500010BDC046DD090000931C9B001950022AFE
:100A600009D0032A0CD0012393401A00037E1343BC
:100A7000037600207047037E102213430376F8E7C5
:100A8000037E202213430376F3E7000070B5800055
:100A9000164BC45823689D7B227E637E13401D4005
:100AA000EB0706D4AB070BD4EB0610D4AB0615D47A
:100AB00070BD2000A3689847012322689373F1E773
:100AC0002000E3689847022322689373ECE7200034
:100AD00023699847102322689373E7E7200063692E
:100AE0009847236820229A73E2E7C0462C0E002024
:100AF00010B50020014B984710BDC0468D0A00007C
:100B000010B50120014B984710BDC0468D0A00006A
:100B100010B50220014B984710BDC0468D0A000059
:100B200010B50320014B984710BDC0468D0A000048
:100B300010B50420014B984710BDC0468D0A000037
:100B400030B587B001A90C4B0A0032CB32C212CBB0
:100B500012C2019B98420BD0012301A99A0052585E
:100B6000824206D00133052BF8D1002007B030BDFA
:100B70000023D8B2FAE7C0467C580000F0B589B02F
:100B800004000D0016000800844B9847070006ABD0
:100B90001B221A7001325A709A700132DA701A717F
:100BA000133A7F49143103A87E4B98470023A36072
:100BB000E3602361636123766376BA007A4BD45095
:100BC0002560B378082B06D023712B880520DB071E
:100BD00005D509B0F0BD1720FA07FAD5F4E7EB7B8D
:100BE0001730DB06F5D42B889B07F2D4337C002B1F
:100BF00079D1337F002B00D081E06C49086A7A00FC
:100C000003ABD35A03430B62B378082B00D186E0C1
:100C100001A933780B7006ABDF5D3800644B984751
:100C20003800644B98473189B3880B43B178B27967
:100C3000114319437378002B02D080231B01194301
:100C40002268D37B5BB2002BFBDB2980717B4B1EC0
:100C500099418900B37B002B01D0012319432268FD
:100C6000D37B5BB2002BFBDBFF232B71002905D06C
:100C70002268D37B5BB2002BFBDB6971B17AF37A1C
:100C8000002B01D010231943337B002B01D02023EC
:100C900019432268D37B5BB2002BFBDBA97122686E
:100CA000D37B5BB2002BFBDB2379042B3FD0082BDB
:100CB0005ED01720002B00D08BE7D37B5BB2002BDC
:100CC000FBDB338D2B822268D37B5BB2002BFBDBFB
:100CD000738D2B832268D37B5BB2002BFBDBB38D40
:100CE0006B83002075E702A901238B700022CA7074
:100CF000327E0A704B70307D2F4B984779E702A9FE
:100D000001238B700022CA702432B21812780A7044
:100D10004B701F33F3181878274B98476DE7086A14
:100D20007A1C520003ABD35A03430B6270E7D37BA8
:100D30005BB2002BFBDB2823F35C2B742268D37B94
:100D40005BB2002BFBDB2923F35C2B752268D37B82
:100D50005BB2002BFBDB2A23F35C2B762268D37B70
:100D60005BB2002BFBDB2B23F35C6B76002030E7C0
:100D7000D37B5BB2002BFBDBB36A2B612268D37B96
:100D80005BB2002BFBDBF36AAB612268D37B5BB207
:100D9000002BFBDB336BEB6100201AE7410B0000FB
:100DA0007C580000555700002C0E00200004004025
:100DB000E139000055390000D93A0000054BC00068
:100DC0000022C2541818C2700271427182714270BE
:100DD0007047C0464411002000B583B001AB01222A
:100DE0005A70002199701A7002280DD0032813D070
:100DF000012801D003B000BD190025300B4B9847E6
:100E000040220B4B5A61F5E701A92520074B984773
:100E10002022074B5A61EDE701A90A20034B9847AE
:100E20008022D200034B5A61E4E7C046150100005E
:100E3000804400410044004100B583B001AB002272
:100E40001A709A705A7002280AD003280DD001280F
:100E500001D003B000BD19002530064B9847F8E7D4
:100E600001A92520034B9847F3E701A90A20014B6C
:100E70009847EEE715010000F0B5D6464F464646C6
:100E8000C0B584B0012500242D4B98462D4E0BE0B3
:100E9000E2002C4B9C46624453781B2B44D0013417
:100EA0000135EDB2032C45D0E0B24346195DE300B5
:100EB000F3185B78DBB29942F1D00029E8D01B2906
:100EC000EDD1E1001F4B5B189B79002BE7D11D4F43
:100ED0008A461223CB55B946D1440E3B4A46D370BD
:100EE00045331371443B53710520174B98475346C4
:100EF000DB5D01AF3B804B46DB787B80134B02937D
:100F000000233B727B72BB722800114B984739005B
:100F10000520104B984728000F4B984701234A465D
:100F200093711A335370BAE70C4B984728000C4B57
:100F30009847B4E704B01CBC90469946A246F0BD61
:100F4000100E002044110020A9150000D800002038
:100F5000D90D0000CD100000390E0000BD0D0000BD
:100F600051170000054BC0000022C2541818C2706F
:100F700002714271827142707047C0462411002094
:100F8000F0B5D6464F464646C0B584B0012500248C
:100F90002C4F2D4E0BE0E2002B4B9C4662445378C5
:100FA000032B42D001340135EDB2042C43D0E0B222
:100FB000395DE300F3185B78DBB29942F2D0002987
:100FC000E9D00329EED1E1001F4B5B189B79002B80
:100FD000E8D11D4B99468A4611234A468B54C84690
:100FE000D0440F3B4246D37047331371443B537197
:100FF0002800164B98474B465246D35C01A90B80FC
:1010000043461B794B80124B4B6000230B724B7293
:101010008B7228000F4B984705200F4B98470123F0
:101020004246937102335370BCE70C4B984728003B
:101030000B4B9847B6E704B01CBC90469946A246B5
:10104000F0BDC046C40F002024110020A9150000E7
:1010500000000020B1130000091C0000650F000013
:101060005117000001680722CB691A42FCD1704772
:101070000122014BDA717047241100200122014B3B
:10108000DA737047241100200122014BDA75704792
:1010900024110020704700000122014BDA717047D3
:1010A000241100200122014BDA7370472411002023
:1010B0000122014BDA757047241100200122014BF7
:1010C000DA7770472411002070470000F8B5DE463B
:1010D00057464E464546E0B50C00052843D88000EB
:1010E000A84B1B589F46A84DA84EA94F2100300081
:1010F000B847002837D0013DADB2002DF6D1A34D41
:101100002C682000A34B994698471F27384001269A
:1011100032008240A04B984680234146CA502800A6
:101120009E4B9B4698478323237523762368022290
:101130009246934323602C682800D8472368524680
:10114000134323602868C8470740BE4043461E60DB
:10115000E88800231021628B0A4204D101338342C4
:10116000F9D3102363833CBC90469946A246AB4614
:10117000F8BD854D8A4E864F21003000B8470028C3
:10118000F1D0013DADB2002DF6D1854D2C68200087
:10119000804B994698471F273840012632008240ED
:1011A0007D4B984680234146CA5028007B4B9B4686
:1011B000984783232375237623680222924693431C
:1011C00023602C682800D8472368524613432360C5
:1011D0002868C8470740BE4043461E60E888002391
:1011E0001021628B0A42BED101338342F9D310230E
:1011F0006383B8E7644D6B4E654F21003000B847FC
:101200000028B0D0013DADB2002DF6D1654D2C685F
:101210002000604B994698471F273840012632002E
:1012200082405D4B984680234146CA5028005B4B64
:101230009B46984783232375237623680222924690
:10124000934323602C682800D847236852461343F1
:1012500023602868C8470740BE4043461E60E888B0
:1012600000231021628B0A4200D07CE701338342C5
:10127000F8D31023638376E7434D4B4E444F210050
:101280003000B847002800D16DE7013DADB2002D18
:10129000F5D1454D2C6820003E4B994698471F27B5
:1012A00038400126320082403B4B9846802341461D
:1012B000CA502800394B9B469847832323752376D1
:1012C000236802229246934323602C682800D84763
:1012D00023685246134323602868C8470740BE402E
:1012E00043461E60E88800231021628B0A4200D02A
:1012F00039E701338342F8D31023638333E7224D68
:101300002A4E234F21003000B847002800D12AE799
:10131000013DADB2002DF5D1244D2C6820001D4BB0
:10132000994698471F2738400126320082401A4BC1
:10133000984680234146CA502800184B9B46984740
:1013400083232375237623680222924693432360E6
:101350002C682800D8472368524613432360286826
:10136000C8470740BE4043461E60E888002310215E
:10137000628B0A4200D0F6E601338342F8D3102391
:101380006383F0E69C580000E9030000800E002013
:10139000590600001925000000E100E0651000007A
:1013A000400E0020100F0020E80E0020C00E00208C
:1013B00000B583B000230193022810D008D9032878
:1013C00011D0042809D10A480A4B9847019004E03B
:1013D000012802D10848074B984703B000BD0748D1
:1013E000044B9847F9E70648024B9847F5E7C04693
:1013F000E80E0020CD070000800E0020400E0020E7
:10140000100F002030B58FB001ABC82252000192FE
:10141000454A0292002203921A731A7680218903A8
:10142000059101214942D982998225315A540B9262
:1014300008315A5401315A5401315A54D7321A865C
:101440003A4A08923A4A09923A4D3B4C01AA3B4922
:101450002800A0470028F9D1364D0022384928003D
:10146000384CA047012238492800A047374B089341
:10147000374B0993374D304C01AA37492800A04714
:101480000028F9D1334D0022344928002D4CA047C3
:10149000012233492800A047324B0893324B09936D
:1014A000324D254C01AA32492800A0470028F9D125
:1014B0002E4D00222F492800224CA04701222E4900
:1014C0002800A04701AB2D4A08922D4A0992FA2222
:1014D0009200DA822B4D184C01AA2B492800A04714
:1014E0000028F9D1002229492648164B984701AB1C
:1014F000274A0892274A0992FA229200DA82264D58
:101500000D4C01AA25492800A0470028F9D1224DF9
:101510000022234928000B4CA04701222149280022
:10152000A0470FB030BDC046480D000002000800C3
:1015300002000900800E0020450100000008004262
:1015400099100000B50700007110000002000C00A7
:1015500002000D00400E002000100042A510000007
:101560007D1000000200100002001100100F00208A
:10157000000C0042B11000008910000002001600AB
:1015800002001700E80E002000140042BD10000009
:101590000300220003002300C00E0020001C0042B4
:1015A000C91000009510000070B5052829D88000EA
:1015B0005E4B1B589F465E4D2C6828005D4B98473C
:1015C000236802221343236028685B4B98471F233C
:1015D00018401E3B8340594A1360E88800231021BD
:1015E000628B0A4204D101338342F9D3102363830F
:1015F0004F4B5A7E01210A435A765A7E01310A43E3
:101600005A7670BD4E4D2C6828004A4B9847236887
:101610000222134323602868474B98471F23184032
:101620001E3B8340454A1360E88800231021628BEB
:101630000A4204D101338342F9D310236383404B20
:101640005A7E01210A435A765A7E01310A435A765C
:10165000D7E73C4D2C682800364B98472368022278
:10166000134323602868344B98471F2318401E3BC0
:101670008340324A1360E88800231021628B0A42BB
:1016800004D101338342F9D3102363832D4B5A7E57
:1016900001210A435A765A7E01310A435A76B0E74D
:1016A000294D2C682800234B9847236802221343B6
:1016B00023602868204B98471F2318401E3B834017
:1016C0001E4A1360E88800231021628B0A4204D16D
:1016D00001338342F9D3102363831B4A537E0121D4
:1016E0000B4353768DE7194D2C682800114B984712
:1016F000236802221343236028680F4B98471F2357
:1017000018401E3B83400D4A1360E88800231021D7
:10171000628B0A4204D101338342F9D310236383DD
:101720000A4A537E01210B4353766AE7B4580000FE
:10173000800E0020651000001925000000E100E087
:10174000400E0020100F0020E80E0020C00E0020E8
:1017500070B505281DD88000444B1B589F46444D4A
:101760002C682000434B98471F2318400126310066
:1017700081406133404AD1502800404B9847832331
:101780002375237623680222934323606B7EB34341
:101790006B7670BD3A4D2C682000364B98471F235E
:1017A00018400126310081406133334AD15028006E
:1017B000324B984783232375237623680222934371
:1017C00023606B7EB3436B76E3E72E4D2C682000DD
:1017D000284B98471F231840012631008140613370
:1017E000254AD1502800254B98478323237523761B
:1017F00023680222934323606B7EB3436B76C8E772
:10180000214D2C6820001B4B98471F2318400126B0
:10181000310081406133184AD1502800174B984756
:1018200083232375237623680222934323606B7EF0
:10183000B3436B76ADE7154D2C6820000D4B9847F0
:101840001F23184001263100814061330A4AD150DC
:1018500028000A4B984783232375237623680222A6
:10186000934323606B7EB3436B7692E7CC580000C2
:10187000800E00201925000000E100E06510000046
:10188000400E0020100F0020E80E0020C00E0020A7
:10189000F0B5CE46474680B585B0254B1B78002B6A
:1018A00041D00022224B1A70224D0024224E03E028
:1018B00001340535032C36D0E300F3185B78002B98
:1018C000F6D0E3001C498C4663445B781B2BEFD1B8
:1018D000631CDBB298462B71E200535C01AF3B8086
:1018E0006244D3787B80154B9946029300233B7268
:1018F0007B72BB724046124B984739000520114B52
:1019000098474046104B984743462B714B461B78EF
:101910006B714B465B78AB714B469B78EB714B46DA
:10192000DB782B72C4E705B00CBC90469946F0BD3D
:10193000150E0020C80F002044110020EC000020EC
:10194000D90D0000CD100000390E0000F0B5D646CC
:101950004F4680B585B0204B1B78002B37D0002236
:101960001D4B1A701D4F012400261D4D05E0013648
:101970000134E4B20537052C29D0F300EB185B786D
:10198000002BF4D0F30016498C4663445B78032B9C
:10199000EDD1E31CDBB299463B75F200535C01A923
:1019A0000B806244D3784B800E4B9A464B600023E9
:1019B0000B724B728B7220000B4B98474B463B755A
:1019C00053461B787B7553465B78BB75CFE705B0F4
:1019D0000CBC91469A46F0BD140E0020C80F0020A2
:1019E0002411002000010020CD100000094B1B78BD
:1019F0000133DBB2012B0AD90022064B1A700123F6
:101A0000054A1370054A1370054A13707047014A5E
:101A10001370FBE728010020130E0020140E002095
:101A2000150E002010B58EB001AA0023002193717D
:101A3000138100205070917211739173517311745E
:101A400053619361117713625362138553859385B4
:101A50000133D37203339370013B1370E023DB0037
:101A60009380FF212923D154074C08492000084BBB
:101A700098472268D37B5BB2002BFBDB13880221E3
:101A80000B4313800EB010BD6C0F0020003C0042D1
:101A90007D0B0000F0B500232149CA5CC25401331C
:101AA000042BFAD1002400251E4E04E00135EDB2CE
:101AB0000134032C14D0335D002BF9D0A3001B1983
:101AC0000433174A94466344A90049194218053162
:101AD00041181F781771013301328A42F9D1E5E7C5
:101AE0000023114C04E00135EDB20133042B16D074
:101AF000E25C032AF9D1022DF7D89A00D2181432E9
:101B000007498C466244AE0076198119053686195C
:101B100017780F71013201318E42F9D1E3E7F0BD40
:101B2000C80F0020100E0020C40F002010B5094B74
:101B30001B78002B00D110BD0022064B1A70064CFA
:101B40002000064B9847142221000548054B984772
:101B5000F1E7C046130E002014010020951A000082
:101B6000380F00201929000010B50C4C00220C4938
:101B700020000C4B984720680B4B98470B4B1A5C86
:101B80001F231340012211009940094B1960637E05
:101B900001210B43637623685A7310BD6C0F00203C
:101BA000ED190000590A0000410B0000E458000044
:101BB00000E100E010B5024B9847024B984710BD7A
:101BC000251A0000691B000070B50020084B9847DB
:101BD0000500084CFA218900A047074B1860074907
:101BE0002800A047064B18600522064B1A6070BDFE
:101BF000C9380000C53C00004C00002040420F00E6
:101C00005000002010E000E030B5084B1C68084A86
:101C1000002580214902013807D3002CFBD05460F5
:101C2000956013680B42FCD0F5E730BD4C000020F6
:101C300010E000E010B50022002302704270002185
:101C40004280017103760262C26182600373C02424
:101C50006401C481037443748374C37403752A24B8
:101C6000035543758375063C0355C2840285C175CF
:101C70002B23C1540133C15410BD0000F0B5D6462A
:101C80004F464646C0B596B0070016000160C64AEA
:101C9000106A80235B02034313620B780520DB0785
:101CA00005D516B01CBC90469946A246F0BD0B78EF
:101CB00017309B07F5D473783B71002B04D1BB4AD6
:101CC000136C04210B4313640023BB60FB603B6176
:101CD000BB76FB763B833B77B54B1F602A23F35CD7
:101CE000002B05D1337D002B02D101337B7701E03E
:101CF00000237B773B68984633786A4613706946C1
:101D00001E20AC4B98471E20AB4B98472C23F25C0F
:101D1000002A54D0013BF55C337BEB18DBB2D118C1
:101D2000C9B28B4221D25219D3B29946A34B9A46DB
:101D300003E00135EDB24D4517D00F242C40337B25
:101D4000E41850229E4902A8D047132CF1D8A400D1
:101D500002ABE05801A900234B70CB708B700133AC
:101D60000B70C0B2974B9847E3E7F489502294492F
:101D700002A8924B9847132C13D9737D9B00DBB2BA
:101D800042461370B37DDB0172781343DBB24246E7
:101D900053703379342B00D97BE19B008A4AD358A6
:101DA0009F46A40002ABE05801A900234B70CB7002
:101DB0008B7001330B70C0B2824B9847DDE7347BE8
:101DC00050227F4902A87D4B9847132C15D9F489DE
:101DD00050227B4902A8794B9847132CCDD8A400F8
:101DE00002ABE05801A900234B70CB708B7001331C
:101DF0000B70C0B2734B9847BFE7A40002ABE0582A
:101E000001A900234B70CB708B7001330B70C0B2F3
:101E10006C4B9847DBE70423102402211AE0717C05
:101E2000337C102416E006231024012112E008233D
:101E3000102400210EE00023302400210AE00023BA
:101E40002024002106E000230024002102E00223D8
:101E500010240121090170220A4013434246937065
:101E6000F37D17203F2B00D91BE7D3703A68537ED0
:101E70005BB2002BFBDBF37C728813432422B25C41
:101E8000D2001343327D92001343B27C52001343BD
:101E9000234342469380337E002B20D0102C00D168
:101EA000D9E000D898E0202C00D1B6E0302C16D133
:101EB000F27C002A0AD0F26980321720FF2A00D96A
:101EC000EFE6326A8032FF2A00D9EAE61720F2698B
:101ED000FF2A00DDE5E6326AFF2A00DDE1E6396827
:101EE0004A7E52B2002AFBDB424613723A68537EA6
:101EF0005BB2002BFBDBB38B424693833A68537E85
:101F00005BB2002BFBDB338C424613842C23F35C47
:101F1000002B05D0013BDBB217200F2B00D9C0E608
:101F20002B22B15C17200F2900D9BAE63868427E0F
:101F300052B2002AFBDBF289307B0243B0680243D5
:101F400009050A431B041343424613612A23F35C29
:101F500013750F2393751533F35C002B12D0F38C9C
:101F60001A4A1720934200D99BE642469384328D49
:101F700080231B01D31815499BB28B4200D990E6F0
:101F80004346DA84124B1B685B01E022D200134007
:101F9000104A516849011268D20E0A43D2B2134363
:101FA0004246138500207CE6000400400008004003
:101FB000880F0020E1390000553900005557000016
:101FC000C0590000D93A0000EC580000FF0F000093
:101FD0002460800020608000002C00D07FE7F27C2D
:101FE000002A0FD0F269802109018C4662442A49F7
:101FF00017208A4200D954E6326A624426498A424E
:1020000000D94EE6244A1720F169914200DD48E6E6
:10201000316A914200DD44E661E7F27C002A0FD08C
:10202000F269802189008C4662441C4917208A424B
:1020300000D936E6326A624418498A4200D930E64D
:10204000164A1720F169914200DD2AE6316A914271
:1020500000DD26E643E7F27C002A0FD0F2698021FA
:1020600009028C4662440E4917208A4200D918E6BC
:10207000326A62440A498A4200D912E6084A1720A5
:10208000F169914200DD0CE6316A914200DD08E61B
:1020900025E7172005E6C046FF0F0000FF030000FC
:1020A000FFFF000070B52E4B1C6823681D7EEDB24B
:1020B000EA0705D5E27ED20702D5A27ED20716D462
:1020C0006B0708D5042322681376E37E9B0702D5AD
:1020D000A37E9B073CD4AB0708D502232268137666
:1020E000E37E5B0702D5A37E5B0735D470BD01227A
:1020F0001A762268537E5BB2002BFBDB61698B1C76
:102100006361538B9BB20B80238B013B9BB2238378
:10211000002B11D0637F002BD2D02268537E5BB29C
:10212000002BFBDB137B02210B4313732268537ECE
:102130005BB2002BFBDBC3E7237F052BC0D1002361
:1021400023770133226893752000A3689847B7E787
:102150002000E3689847BEE7236920009847C5E759
:10216000880F0020F0B5DE4657464E464546E0B59E
:1021700087B08046049116001F0000220023002132
:102180008B463F2401202100009601975C46039472
:102190004446059413E02024641A0500E540A8464F
:1021A00014E0009C019D121BAB415C464D462C4344
:1021B000A346039C45462C430394013925D3202490
:1021C00064420C19E7D40500A540A84604008C40E1
:1021D000A14692185B4114001D00059E4F463E40EB
:1021E000B446049E47463E40B246664657463E4386
:1021F00003D00600264332002B00009C019D9D4227
:10220000DBD8CED19442D8D8CBE7039B58461900EF
:1022100007B03CBC90469946A246AB46F0BD10B50F
:10222000490840230024814202D2180010BD1C003E
:10223000091A631C9BB28842F9D94023FF2CF4D8B9
:1022400014800023F1E70000F0B583B00F00160002
:1022500008AA117804004C434022BC4202D9100065
:1022600003B0F0BD002B14D1020008000021194C6E
:10227000A04701003A0000230020174CA04700228D
:102280000123121A8B41120C1B041A4332800022C4
:10229000E5E70022012BF9D10A00002300210D4CB3
:1022A000A04702000B0000920193380000210A4C65
:1022B000A047050080239B0140229842CFD8790F88
:1022C000F800009A019BA047EA00821AD2B252039A
:1022D0002A43DBE7DD3D00006521000010B582B038
:1022E00004000E4B1B78002B07D0002905D10B4BA7
:1022F0005B78834210D01D200CE001A90C701320E4
:10230000074B98471320074B9847044B5C700122FA
:102310001A70002002B010BD0020FBE72C01002045
:10232000E139000055390000404B984231D00AD9BC
:102330003F4B98424DD03F4B98425AD03E4B98422B
:1023400037D0002070473D4B98420CD03C4B984210
:10235000F7D1012917D000295DD0022915D0032912
:1023600015D00020EEE7012907D0002951D002291D
:1023700005D0032905D00020E4E73248E2E73248DF
:10238000E0E73248DEE73248DCE73248DAE7324855
:10239000D8E7012907D000293FD0022905D0032919
:1023A00005D00020CEE72D48CCE72D48CAE72D48C0
:1023B000C8E7012907D0002931D0022905D0032917
:1023C00005D00020BEE72848BCE72848BAE72848DF
:1023D000B8E7012907D0002923D0022905D0032915
:1023E00005D00020AEE72348ACE72348AAE72348FE
:1023F000A8E7012907D0002915D0022905D0032913
:1024000005D000209EE71E489CE71E489AE71E481C
:1024100098E71E4896E7032094E71D4892E71D4879
:1024200090E71D488EE71D488CE7C046001000422B
:1024300000180042001C0042001400420008004244
:10244000000C004203000500030006000300070023
:102450000300010003001E0003001F000300090029
:1024600003000A0003000B00030011000300120028
:102470000300130003000D0003000E0003000F0013
:1024800003001700030018000300190003000400F4
:10249000030008000300100003000C0003001600F6
:1024A00030B587B00B4B6A4632CB32C232CB32C228
:1024B000009B83420BD001239A0069465258824206
:1024C00006D00133062BF7D1002007B030BD002322
:1024D000D8B2FAE7105A000070470000F0B50A4B76
:1024E0001B78002B0CD1094F094E0A4D0024DE51F8
:1024F0005A1914600433182BF9D10122024B1A70B7
:102500008000024BC150F0BD2E01002030010020A0
:10251000D92400008C0F002000B583B009236A463F
:10252000137001335370013393700133D37001334F
:10253000137101335371034B98476B46185603B020
:1025400000BDC046A124000010B5024B1B6800204E
:10255000984710BD3001002010B5024B5B68012088
:10256000984710BD3001002010B5024B9B68022037
:10257000984710BD3001002010B5024BDB680320E6
:10258000984710BD3001002010B5024B1B69042094
:10259000984710BD3001002010B5024B5B69052043
:1025A000984710BD30010020F0B5DE4657464E4634
:1025B0004546E0B591B005000C0016002960080002
:1025C000BC4B9847020023680520DB0706D511B0F5
:1025D0003CBC90469946A246AB46F0BD23681730F6
:1025E0009B07F4D4B449086A971C0123BB400343FA
:1025F0000B620FA92D27F35D0B701432D3B2029337
:102600001800AE4B98470298AD4B9847F05D0021FB
:10261000AC4B9847F37A6B712423F35CAB712523A1
:10262000F35CEB71F37E2B72337F6B722B689846F1
:102630001800A04B9847143000220E2306A98C46A0
:1026400063441A80328A02928023DB019A4200D1CD
:102650009EE00FD9C023DB01029A9A4200D192E09A
:1026600080231B029A4200D01FE10323069300231C
:10267000079308E080239B019A4200D015E11023C4
:1026800006930F3B079333680593F36803937369CD
:102690000493337E9B462623F35C9A4673689946DF
:1026A000002B00D1A0E080235B05994500D184E098
:1026B000737E002B02D0B37E424693732A68029F3A
:1026C000D369002BFCD10E3306AA944663441B88C1
:1026D00042469381059B039A1343049A13434A4647
:1026E00013431F435B461B021F4353465B071F43B5
:1026F0002723F35C002B01D104331F43737E9B021D
:10270000327F52021343727F120213432422B25CBF
:10271000520413432522B25C12041343B17AF27AB5
:10272000114319433389FF2B00D181E080225204E9
:10273000174319432C23F35C002B03D1624B9B7886
:102740009B0701D580231F432A68D369002BFCD146
:10275000434659602A68D369002BFCD143461F6069
:102760000EAB80221A7000225A70DA709A70336BA6
:102770000A93736B0B93B36B0C93F36B02930D93F0
:1027800000270AAE63E008230693073B07937AE726
:1027900033680593F368039373690493337E9B4610
:1027A0002623F35C9A4673689946002B18D0802341
:1027B0005B05994501D0002025E02723F35C002B21
:1027C00000D075E7336A1F00C0B2404B9847010044
:1027D0000E2206AB9C46624438003D4B984712E0FF
:1027E00008230693002307932723F35C002B0ED0C6
:1027F000069B0093079B0E2206A98C466244B16A91
:10280000306A344FB847002800D0E0E650E7336A1A
:102810001F00C0B22D4B98470100069B0093079BF9
:102820000E2206A88446624438002A4FB847EAE7D9
:10283000F37E002B00D17DE78023DB041F4379E783
:102840002000254B984707E00137042F0DD0F9B23F
:10285000BB0098590028F3D0431CF5D00EA908708E
:10286000000CC0B21D4B9847EEE70023EB602B61D4
:102870006B61AB61EB612B62AB626B620022EB853B
:10288000AB853033EA540133EA540133EA5401335F
:10289000EA542868074B984704001149114B9847A0
:1028A000A400114BE550002091E61023069300236D
:1028B0000793E8E6A124000000040040E13900008D
:1028C00055390000DD22000000200041FD390000E4
:1028D0001F2200004922000029230000D93A0000ED
:1028E000612A0000DD2400008C0F0020C2791C2327
:1028F000002A01D118007047C28D92B2173B002AFE
:10290000F8D10368DA69002AFCD1198502211A7E00
:102910000A42FCD00023EDE7F0B5CE46474680B52D
:1029200083B0050001911720002A04D103B00CBC2C
:1029300090469946F0BDEB790530002BF6D02C6817
:10294000E369002BFCD1013A93B299460026012796
:102950001F4B984611E0731C9BB2019A915D6A79F6
:10296000012A17D089B21E0028001A4B98474B46FF
:10297000013B9BB29946434513D0237E3B42EAD1AB
:10298000134B227E3A42E6D1012B19D0013B002B9A
:10299000F7D1E0E70236B6B2019AD35C1B021943C5
:1029A000E2E7237E9B070DD4094B0221227E0A42D7
:1029B0000AD1012B0AD0013B002BF7D10020B5E74B
:1029C0001220B3E70020B1E70020AFE71220ADE707
:1029D000FFFF0000ED280000F8B504000D00160010
:1029E00007680F4B9847A38D9BB2002B03D00D4B6C
:1029F00098470520F8BDA6850A4B984765620522D1
:102A00003223E2542E3BBB75237A002B01D02023C6
:102A1000BB75637A0020002BECD00823BB75E9E777
:102A20004D3300008D330000931C9B00C318596088
:102A30003021012393401A00435C134343547047F1
:102A400010B51723002A01D1180010BD8479053371
:102A5000002CF9D0014B98470300F5E7D929000075
:102A6000F8B58000514BC6583468E369002BFCD19F
:102A7000237EA57D1D403023F35C3122B75C1F40CF
:102A8000EB0722D5F38D9BB2002B1CD0B26A1378D2
:102A9000DBB2511CB162717901290ED09BB2DB050A
:102AA000DB0D2385F38D013B9BB2F385002B0CD10D
:102AB000013323750133A37507E0517809020B43F5
:102AC0000232B262EBE701232375AB0706D502237E
:102AD000237500223133F254FB0728D46B0710D53D
:102AE000638BDBB21A0726D43F221340002B4AD057
:102AF0009A0723D51A223223F254303B63837B0793
:102B00003DD4EB0604D5102323752376FB0640D471
:102B1000AB0604D52023237523763B073DD42B0732
:102B200004D5082323752376BB063AD4F8BD3000BC
:102B3000F3689847D2E737221340D7E75A0705D5FD
:102B40001E223223F2542E3B6383D8E7DA0705D5E1
:102B500013223223F254313B6383D0E7DA0605D5E2
:102B600042223223F254223B6383C8E720221A42D6
:102B7000C5D021323223F254123B6383BFE73000C9
:102B800073699847BDE7BB07BBD5300033699847E9
:102B9000B7E73000F3699847BAE73000B369984760
:102BA000BDE7336A30009847C0E7C0468C0F00206D
:102BB00010B58CB00220194B9847194B1860684625
:102BC000184B984701236A465370C0239B005380DB
:102BD00004231373C0235B01D381302313712D3B76
:102BE0001370114C11492000114B98472268537EF5
:102BF0005BB2002BFBDB802109040E4B19600F2315
:102C000093751376137802210B431370064B1A68E1
:102C1000537E5BB2002BFBDB0CB010BD41570000B4
:102C200048010020351C0000A40F00200040004295
:102C30007D1C000000E100E030B52D4B19684B7E93
:102C40005BB2002BFBDB0B691F2293431843086127
:102C50004B7E5BB2002BFBDB4B7E5BB2002BFBDBC6
:102C60000B7B022213430B734B7E5BB2002BFBDB0F
:102C700001200425022401E010420AD10B7EDBB2C0
:102C800002001A401D4200D022431C42F4D02A43C5
:102C9000F2E70A7ED2B201231340500701D5022089
:102CA0000343920701D504221343DB0703D4114BDE
:102CB0001B68188830BD4B7E5BB2002BFBDB0D4BD5
:102CC0001B684A8B1A800A4B196801230B760A7E0F
:102CD000D2B21340500701D502200343920701D519
:102CE000042213435B07E2D502230B76DFE7C046DD
:102CF000A40F00204801002030B50C4D0C4C2B785F
:102D000022789B1A8B42FADB00290ED00123084C53
:102D1000084D2278D2B2AA5CC25422780132D2B2D3
:102D200022700133DBB29942F3D230BD2011002072
:102D3000641100206811002070B584B00023114C8C
:102D4000C25C1A550133492BFAD10F4BCA00D05C33
:102D500001AC20809B181B7963800A4B02930023EF
:102D600023726372A3720131CDB221002800074E95
:102D7000B0470120064B984721002800B04704B017
:102D800070BDC0464C01002024110020B11300008A
:102D9000091C000070B52E4B1B782E4A1278DBB24E
:102DA000934243D02B490B78DBB22B4AD35CDBB286
:102DB0002A4A13700A780132D2B20A704C2B21D001
:102DC0000FD9622B17D1254C01212000244B9847A5
:102DD0006378672B12D0732B31D10022214B1A70EC
:102DE0002DE0012B2BD0432B29D00023184A137040
:102DF000184A137023E0732BF7D120E00122194BFE
:102E00001A701CE048211548154B98470024164DB0
:102E1000E1B2E300EB185B78032B03D00134042C00
:102E2000F6D10CE00D48114B9847F7E70D4B1B7896
:102E3000012B05D00023064A1370064A137070BD9B
:102E40000023034A1370034A1370094B9847F6E7AF
:102E5000201100206411002068110020980100203A
:102E6000F92C00009501002024110020392D0000CC
:102E70002D1B0000F8B5194F194E1A4C01250BE017
:102E800035712078184B984770710135EDB20137D4
:102E900005360134042D20D03B781A3BDAB2052ADE
:102EA000F3D89300114AD3589F46357120780E4BC2
:102EB00098477071E9E7357120780B4B984770712E
:102EC000E3E735712078084B98477071DDE735717D
:102ED0002078054B98477071D7E7F8BD100E002099
:102EE000C80F0020405A0000392C0000285A00006A
:102EF00082B06B46991D00230B800B4B1B681B8D0A
:102F0000DB05DB0D0B80094A1078094B1B1809887B
:102F1000C9B2197013780133DBB213700122054B6B
:102F20001A7002B07047C046380F002020110020F0
:102F300068110020F00F002030B593B001AB802263
:102F4000D205019200225A60FF21198100219A7254
:102F5000DA720120242418550134185525301A54EA
:102F600001301A549A6205301A545A611A82DA767C
:102F700019761977597613229A765977E1225202F7
:102F80001A6280229203DA601B4A1A6301225242BB
:102F90005A631A499963DA6303212E329954184D02
:102FA000184C01AA18492800A0470028F9D1144D4F
:102FB0002C682000154B98471F2318401E3B834068
:102FC000134A13602A68D369002BFCD123680222BC
:102FD000134323600A4C013A0E4920000E4B9847D8
:102FE0003122A35C02210B43A354303A11A92000E3
:102FF0000A4B984713B030BD02002C0002002E008F
:10300000380F0020A92500000018004219250000F3
:1030100000E100E0F12E0000292A0000412A000012
:103020000300653BDBB21F22092B01D8100070475B
:1030300001007D31C9B2013A0929F7D9013A132BB0
:10304000F4D9013A03006F3B092BEFD91A3A283320
:10305000132BEBD9013232331D2BE7D96033DBB2AE
:1030600018323B2BE2D94932F028DFD90022DDE7C4
:10307000F8B50600344D0024344F11E029002A78B9
:10308000012A20D000230B70314AA354314AA354A3
:10309000314B1A5D314BE25401340135042C3AD0E6
:1030A000305DB847031E1FD000222D4962542B4AC1
:1030B000A25C002AE2D12A78002ADFD101232B70FA
:1030C000244BE054E4E7234AA25C9A42DAD1204A36
:1030D000A35C0133DBB2A354052BD9D91E4B185581
:1030E00000232B70A354D3E71D4BE35C0133DBB209
:1030F0001B4AA354052BCBD9E3B2032B06D00023E4
:10310000174AA354144AA2181370C1E70023D370BE
:10311000114AD370F3E7134B1B883178124AD1540C
:103120007178124AD154F178114AD15401339BB2CB
:10313000FA225200934202D00A4A1380F8BD0022BC
:10314000084B1A80FAE7C046040200202130000034
:103150000C0200202C020020C40F002020020020BE
:10316000140200203002002010080020040A002071
:10317000F80B0020F8B50600304D0024304F11E068
:1031800029002A78012A20D000230B702D4AA3544D
:103190002D4AA3542D4B1A5D2D4BE25401340135B9
:1031A000032C33D0305DB847031E1FD000222949BD
:1031B0006254274AA25C002AE2D12A78002ADFD191
:1031C00001232B70204BE054E4E71F4AA25C9A4293
:1031D000DAD11C4AA35C0133DBB2A354052BD9D945
:1031E0001A4B185500232B70A354D3E7194BE35CFB
:1031F0000133DBB2052B02D8164AA354CAE70023D9
:10320000144AA354114AA2181370C3E7124B1B8827
:103210003178124AD1547178114AD154B178114A97
:10322000D15401339BB2FA225200934202D00A4A8F
:103230001380F8BD0022084B1A80FAE7080200202C
:10324000213000001002002028020020100E002073
:103250001C0200201802002032020020340200204C
:10326000280400201C060020F8B50024064F074E55
:10327000074DE05DB04760550134042CF9D1044896
:10328000044B9847F8BDC046445A0000392C000052
:10329000000200207130000070B50E20064DA847D6
:1032A000064C20700D20A84760701220A847A0701F
:1032B0002000034B984770BD392C0000FC01002012
:1032C00075310000124A13781B07517809060B4329
:1032D00010490878C002034348788001034390787E
:1032E00000050343897849000B43D2781204134345
:1032F000094A1268934209D0084A190E1170190C34
:103300005170190A9170D370034A13607047C04618
:10331000C40F0020100E002024020020C80F00203F
:1033200010B5034B9847034B9847034B984710BD84
:103330006932000099320000C532000010B5014B1F
:10334000984710BDB12B0000704700000C4B1B6864
:10335000002B06D1EFF31083002B07D00022094B7E
:103360001A70074A136801331360704772B6BFF3CF
:103370005F8F0022044B1A700132024B1A70F0E783
:10338000EC0D0020F00D002054000020084B1A68BE
:10339000013A1A601B68002B09D1064B1B78002BE1
:1033A00005D00122044B1A70BFF35F8F62B67047DD
:1033B000EC0D0020F00D00205400002010B508286E
:1033C00003D880001B4B1B589F46002030E01A4B4F
:1033D00018692DE0194B1B6A9B059B0F1848D840B4
:1033E00026E0154B586923E0134B1B6800209B0710
:1033F0001ED512491022CB681A42FCD00E4B1B6816
:103400005B0701D40F4813E000200F4B98470A4B8D
:103410009B681B041B0C58430AE05023074AD35CEB
:1034200000205B0704D5044BD86801E0802000022F
:1034300010BDC046485A0000F40D002000080040AE
:1034400000127A00006CDC02FD39000070B50C49F6
:103450000B6A04788578407801221040800140266C
:10346000B34303432A40D201802083431343032202
:10347000224012020348034013430B6270BDC04652
:1034800000080040FFFCFFFFF0B5CE46474680B580
:10349000194B99469B6941788C4605780679C7781F
:1034A000447980780121084080000422934303433B
:1034B00060460840C000043293430343380008408C
:1034C00080014027BB43034330000840C0018026F1
:1034D000B3430343072005402D02084803402B4314
:1034E00021400903064803400B434A4693610CBC44
:1034F00090469946F0BDC04600080040FFF8FFFF27
:10350000FFEFFFFF10B5037A9B061B0C4289920563
:10351000920D134318494B608379C2791343428853
:103520008488224313434278D20113430B6003780B
:10353000042B11D0202B0ED1037B9B06028A134350
:10354000C28912040D490A4013430B4A9360116863
:103550000B4B0B43136010BD037B9B06028A134386
:10356000C289120405490A401343034A9360136851
:1035700004210B431360EEE7F40D00200000FF036D
:1035800024040000082803D88000254B1B589F46C0
:10359000172044E0234A136A02210B4313620020E0
:1035A0003DE0204A936902210B439361002036E0FD
:1035B0001C4A138A02210B43138200202FE0194A70
:1035C000938A02210B439382002028E016490B685E
:1035D000022213430B60134B9A8419000E32CB68FE
:1035E0001A42FCD0104A91680E4BD96252689A6216
:1035F00000229A8419001032CB681A42FCD00A4B80
:103600001B689BB2074A9384002008E005494422C6
:103610008B5C022003438B54002000E000207047A5
:103620006C5A000000080040F40D0020F0B5CE46B2
:10363000474680B58DB0C222D2004D4B9A604D49AD
:103640004B681E2293431C3A13434B6001AB1A7024
:103650000024494DE0B201A9A8470134252CF9D135
:10366000464C2368DB0442498A695B0E1B044448CC
:10367000024013438B610AA8012343708370002525
:10368000C57003710633037045713E4B98470420A3
:103690003D4B984705AB00225D809D809A71DA71A1
:1036A0003F2159813B3919705A7023689B0E3F2B7B
:1036B0005BD005A80372B723DB00038207230373E3
:1036C0003833C381314B984704A800254570012643
:1036D000867005702E4B984706202B4FB8472D4B10
:1036E000984701AC029665702572657204232370B9
:1036F00021000120284B994698470120274B9846E6
:1037000098476660657006232370257265722100F4
:103710000320C8470320C047267021000020164B15
:10372000984700201E4B98470720B8471049D022E1
:10373000CB681340D02BFBD11A4A0023137253726B
:103740009372D37201A901224A604B700B724B72C3
:1037500007330B700020104B984700200F4B984701
:103760000DB00CBC90469946F0BD203BA1E7C04689
:103770000008004000400041E13900002460800062
:10378000FFFF80FF8934000085350000053500000B
:103790004D340000A9370000CD3700008538000007
:1037A0005539000000040040064A936908210B4384
:1037B00093610122044B1A7019000B781342FCD15B
:1037C0007047C04600040040000C004070B5060081
:1037D00004000D782D0205434B78002B02D0802386
:1037E000DB021D434B7A002B02D080231B031D43B9
:1037F0004868012810D9431E184234D1022830D914
:103800000223002201325B009842FBD812023243AD
:10381000140080235B031D430B7A002B02D080230E
:103820009B031D43134A53785BB2002BFBDB124B07
:103830009847124B1E700F4A53785BB2002BFBDB8C
:103840000C4B9C601A0053785BB2002BFBDB094ADF
:103850005368802149020B401D435560084B98472F
:1038600070BD0022D2E70402344380239B021D4333
:10387000D2E7C046000C00404D330000080C004069
:103880008D33000010B504000B4A53785BB2002B57
:10389000FBDB0A4B98470A4B1C70074A53785BB214
:1038A000002BFBDB044A516880235B020B4353600F
:1038B000044B984710BDC046000C00404D3300003B
:1038C000040C00408D33000070B504001A4A537890
:1038D0005BB2002BFBDB194B9847194B1C70164A47
:1038E00053785BB2002BFBDB134E7068C004C00E34
:1038F000144B98470500124B1C707668F602F60FC1
:10390000114B1C700C4A53785BB2002BFBDB0A4B4B
:103910009C682402240C0D4B9847002E07D1012CE3
:1039200007D9210028000A4B9847050001E001341F
:10393000E540280070BDC046000C00404D3300003B
:10394000040C0040BD330000080C00408D33000023
:10395000C53C000010B50400064B9847064B1C7090
:10396000064A53888021C9010B435380044B984772
:1039700010BDC0464D330000020C0040000C00405A
:103980008D33000010B504000F4B98470F4B1C708F
:103990000F4A53881B05180F53880E490B4053805C
:1039A00053880D490B40538011008022D2014B886F
:1039B0001342FCD106494A880302064802401343D9
:1039C0004B80064B984710BD4D330000020C004061
:1039D000000C0040FFF0FFFFFFBFFFFF8D33000032
:1039E00010B50C7824020443024B9847A4B2024B52
:1039F0005C8010BD85390000000C004010B504004B
:103A0000064B9847064B1C70064B5C882405240F18
:103A1000054B98472000054B984710BD4D330000DB
:103A2000020C0040000C00408D330000C93800003B
:103A300030B5D378002B35D11378802B29D01B06D5
:103A400080246402234354780225AC4306D1947841
:103A5000002C20D18024A402234341605478013CEF
:103A6000012C1CD90D042D0CA024E4052C431C436F
:103A700084620D0CD02424062C431C438462D47829
:103A8000002C22D15B031CD59378012B1ED0416101
:103A900017E00023D7E7C024E4022343DDE70D4C01
:103AA0002340DFE741600C04240CA023DB05234303
:103AB00083620C0CD0231B0623438362D378002B34
:103AC00003D15378013B012B02D930BD8161F8E766
:103AD0008160FAE7FFFFFBFF10B50A00C109002370
:103AE000002904D14309DB0105498C4663441F24A6
:103AF0002040012181401800024B984710BDC0466C
:103B000000440041313A00007047000010B5054BF9
:103B10009847054B9847054B9847054B9847054BE9
:103B2000984710BD2D36000049330000093B0000C6
:103B3000093B0000093B0000FEE70000F8B52A4AF7
:103B40002A4B9A4211D01A00294B9A420DD2294A87
:103B500003339B1A9B0801339B0000222348224910
:103B60008C58845004329A42FAD1234A234B9A4209
:103B70000AD2D34321495B1803218B4304339B189A
:103B8000002102C29342FCD11D4AFF211D4B8B43F1
:103B90009360FD3990235B001B4AD1501B4AD378B8
:103BA0000325AB4302242343D370D3780C27BB43B4
:103BB00008263343D370164B987B30229043202243
:103BC00010439873997BB943314399739A7BAA4305
:103BD00022439A730F4A536880210B4353600E4B64
:103BE00098470E4B9847FEE7305B0000000000202E
:103BF000BC00002004000020BC0000206C1200204B
:103C000000ED00E0000000000070004100500041A5
:103C10000048004100400041F9560000453C0000CA
:103C20000300064A1268002A04D0044A1068C31828
:103C3000136070470249014A1160F6E70C0E00203C
:103C40007032002070B5114B9847114B9847114BBB
:103C50009847114B9847FA204000104B9847104B5B
:103C60009847104B9847104E104D114CB047A8473D
:103C7000A047104B9847104B98470520074B984793
:103C80000E4B98470E4B9847F0E7C0460D3B00009F
:103C9000C91B0000B51B000005140000091C000032
:103CA000392F00003D33000021330000810F000058
:103CB000790E0000752E0000952D00004D190000B2
:103CC00091180000002243088B4274D303098B42F1
:103CD0005FD3030A8B4244D3030B8B4228D3030CDC
:103CE0008B420DD3FF22090212BA030C8B4202D37E
:103CF0001212090265D0030B8B4219D300E0090AA6
:103D0000C30B8B4201D3CB03C01A5241830B8B42AE
:103D100001D38B03C01A5241430B8B4201D34B0397
:103D2000C01A5241030B8B4201D30B03C01A5241FC
:103D3000C30A8B4201D3CB02C01A5241830A8B4281
:103D400001D38B02C01A5241430A8B4201D34B026A
:103D5000C01A5241030A8B4201D30B02C01A5241CE
:103D6000CDD2C3098B4201D3CB01C01A5241830982
:103D70008B4201D38B01C01A524143098B4201D3BC
:103D80004B01C01A524103098B4201D30B01C01AE7
:103D90005241C3088B4201D3CB00C01A5241830861
:103DA0008B4201D38B00C01A524143088B4201D38E
:103DB0004B00C01A5241411A00D2014652411046EE
:103DC0007047FFE701B5002000F006F802BDC046CD
:103DD0000029F7D076E770477047C046F0B5CE4669
:103DE000474615042D0C2E0080B50704140C3F0C1B
:103DF0009946030C7E435D43674363437F19340C4C
:103E0000E4199C46A54203D980235B029846C4442A
:103E10004B46514343433604360C250C2404654479
:103E2000A4195918491920000CBC90469946F0BDB8
:103E3000F8B54546DE4657464E460C03E0B54E0003
:103E4000C90F88460D00610A440F0C43C7001903CF
:103E50005800DB0F9B464B0A510F0B43760D400D6C
:103E60001900D200D84500D1AEE0351A002D00DC93
:103E7000F6E000280FD1134300D1DBE06B1E002BCE
:103E800000D037E1BA1A9742BF41641A7F42E41B5F
:103E90000126170024E0C64B9E424DD080231B0410
:103EA0001943382D00DD07E11F2D00DD38E120200A
:103EB000431B9A460B0050468340994613004846E0
:103EC000EB401843030050468240501E8241E940B7
:103ED0001A43BA1A611A9742A441170064420C1B94
:103EE000230262D56402650A002D00D1DFE02800BC
:103EF00001F0E4FB0300083B1F2B00DDD2E0202291
:103F00003C00D21A9D40D4409F4025439E4200DD94
:103F1000C4E09E1B731C1F2B00DDF1E02022380043
:103F20002900D21AD840914097402C000143781EB6
:103F30008741DC4000260F437B0709D00F233B401D
:103F4000042B05D03B1DBB42BF417F42E4191F003B
:103F500023022CD5964B01369E4200D19AE045466D
:103F6000944BFF081C406007760564020743240B4E
:103F7000760D00212403230B0C0D8F4A24051C43CE
:103F80001440330523435B00ED075B082B433800E7
:103F900019003CBC90469946A246AB46F8BD644623
:103FA000044300D111E2040067467B07C6D14546B1
:103FB0006007FF080743E4087D4B9E4230D024038E
:103FC0007605240B760DD4E7331A9A46002B78DD5C
:103FD000002831D076488642AED0802000040143CC
:103FE0005346382B00DCE9E00A43511E8A41002188
:103FF000D219BA42BF4109197C4217000C19230299
:10400000D3D56B4B01369E4200D13AE10120694B7A
:104010001C407B0807401F43E007074364088BE709
:1040200023003B4300D1CBE180221203144324033D
:10403000240B9EE72E007FE70800104300D1B4E078
:10404000581E002800D0DEE0BA18BA429B4164181E
:104050005B42E418170001262302A6D50226D5E705
:10406000002D6ED1701C4005400D012800DCF9E0E8
:10407000B81A844687428041E51A40422D1A280228
:1040800000D489E0D71BBA4292411C1B5242A51AA8
:10409000D84629E74546002400276AE7454CF61A2A
:1040A0002C4049E73D002838854000272EE738009E
:1040B00001F004FB20301DE70A43511E8A41002114
:1040C00007E7002B00D0F3E0701C43055B0D012BCC
:1040D00000DCADE0364B984200D1D1E0BA18BA42CC
:1040E000BF4164187F42E419E70752081743640888
:1040F000060021E72E48854200D193E01D00D0E65E
:1041000029001F3EF140202B00D18DE04022D31A20
:104110009D402F437D1EAF4100240F43002644E7FE
:104120002B000800203BD8400300202D00D17DE06B
:104130004020451BA9400A43511E8A4100211A43D1
:10414000C7E6002E50D01A4EB04257D080266B42A0
:104150009946360434434B46382B00DDD6E01F2BFE
:1041600000DD35E12026F51A2600AE40B2463E00BD
:10417000DE40AC46350056462E436546AF407D1EB8
:10418000AF41DC403743D71BBA4292410C1B52422D
:10419000A41A0600D846A3E6644667462C4300D01E
:1041A000A2E600250026002706E71E00C4E6C0465A
:1041B000FF070000FFFF7FFFFFFF0F801F2B63DC67
:1041C0002020C31A080098409C468346534610009E
:1041D000D84003005846184363469A40531E9A41FC
:1041E00053460243D94003E726003E4306D0EB4343
:1041F0009946002BC7D0944EB042ACD10C001700AA
:104200000600D84698E6904B9A450BD08246E7E6E2
:10421000002800D09EE01800104300D1E9E01C0007
:104220001700D846884E87E6002572E7002182E70E
:1042300023003B43002E00D0ABE0002B00D1E7E091
:104240000B00134300D177E6BA18BA42BF41641895
:104250007F42E419230200D4F2E07C4B17001C409B
:10426000060069E620003843002ED1D100285BD13A
:104270001C00144300D1A8E01C001700D8465BE6E0
:1042800006000024002797E650460B002038C34064
:1042900099465346202B00D195E0402350461B1AE7
:1042A00099400A43511E8A414B4600211A439FE61A
:1042B000002E30D126003E4367D0DB439A46002BC8
:1042C0001CD0614EB04260D05346382B00DD96E0E2
:1042D0001F2B00DD9FE02026F31A26009E409C46FF
:1042E000B34653463E00DE4033005E461E436346FF
:1042F0009F407B1E9F415346DC403743BF18974287
:10430000924164185242A418060078E627437C1EA6
:10431000A741002437E74C4EB04236D080265B429E
:1043200036049A463443CFE71800104300D103E621
:10433000B81A84466745AD41E01A6D42401B05023C
:1043400000D42CE6D71BBA4292411C1B5242A41A3D
:10435000D846F1E51800104300D163E7F808670775
:1043600007438020E4080003044208D0DD0805422A
:1043700005D1D208590711430F002C00D8467B0FF6
:10438000E4001C43FF00304ED6E50C001700060089
:10439000D2E5002B38D00B00134300D142E7F808D8
:1043A000670707438020E40800030442E7D0CB08F6
:1043B0000342E4D1D208490711430F001C00DEE795
:1043C00000270024D5E500216BE700250027F3E551
:1043D0004E462500203EF5404B462E00202B2DD08A
:1043E0004025ED1AAC4027437C1EA74100243743EB
:1043F000C9E6802400252403134E0027DCE527436B
:104400007C1EA741002479E70C0017000E4E93E5AF
:104410000C00170090E556462300203EF3409946D5
:104420005346202B0ED0402356469B1B9C402743CF
:104430007C1EA7414B4600241F435FE70024D2E7C0
:104440001700B2E50024F2E7FF070000FFFF7FFF3F
:10445000F0B557464546DE464E46E0B54C000E03E5
:1044600087B0834692461D008046360B640DCF0F01
:10447000002C4FD06F4B9C4235D08023420F1B0441
:10448000F600134333439946C30098466A4B00260F
:104490009C460023644403932B031B0B9B466B0039
:1044A000ED0F50465B0D01955ED0624A934253D0AA
:1044B0005A46D1008022400F120402430A43934619
:1044C0005246D1005C4A944600226344380068405A
:1044D00084460290E41A16430F2E00D9B4E0574BDD
:1044E000B6009B599F460300334399466CD1002385
:1044F0009846023308260393CEE7CB464146039AFB
:104500000197022A65D1019B4A4C9C460023002258
:1045100098466BE00300334399464ED0002E00D1FD
:10452000BCE1300001F0CAF803000B3B1C2B00DD9E
:10453000ACE11D22D31A5A460100DA4008398E40F8
:104540001300334399465B468B40984600233C4C0E
:104550000026241A03939FE751465A46114329D156
:10456000002293460232B1E7594601431ED05B4612
:10457000002B00D19EE1584601F0A0F803000B3B50
:104580001C2B00DD8FE102005946083A91408B4612
:104590001D21CB1A5146D9400B0059460B435146B9
:1045A0009B469140264B00221B1A8FE700230122D5
:1045B0009B468BE75146032288E700239846013348
:1045C00004260024039367E70323B14603930C26D4
:1045D00062E7032A00D15CE2019B012A00D0E4E1FA
:1045E00013409C4600230024002298460021120319
:1045F000130B0A0D12051A432305124C40462240A4
:10460000134362465B00D2075B081343190007B0EF
:104610003CBC90469946A246AB46F0BD00238022A2
:104620009C4612039846034CE0E70023014C00220D
:104630009846DBE7FF07000001FCFFFF905A0000EF
:104640000DFCFFFFFFFF0F80D94500D939E100D1F4
:1046500034E1002346464D469A46013C5B460A0E2D
:104660001B021A430B02170C039313041B0C390093
:10467000280090460193FFF725FB0200019B83462B
:104680005A43280039009146FFF7A2FB350C090474
:104690000D43A9450DD95B464544013BA84500D9CA
:1046A0003AE1A94500D837E102235B429C464544E4
:1046B000E3444B46EB1A390018000493FFF702FB62
:1046C000019B05004343390004989946FFF780FB9E
:1046D000330409041B0C0B43994509D943446A1E52
:1046E000984500D91AE1994500D817E1023D4344A5
:1046F0004A469B1A5A4612042A4303999346100CC1
:104700000A0C914609045A46090C4E460D00120443
:10471000120C4543059151437243704352190E0CDC
:10472000B218954203D980256D02AC466044150C41
:1047300009041204090C28185218834200D2CEE052
:1047400000D1C8E01D1A53469E1AB245924152420A
:10475000AB1A9A46984500D117E139001800FFF7C7
:10476000B1FA019B05004343390050460493FFF71B
:104770002FFB04980B04310C1943884209D941449A
:104780006B1E884500D907E1884200D804E1023D4C
:104790004144049BCB1A180039000493FFF792FAA6
:1047A000019B82464343390004980193FFF710FBB5
:1047B00001980B043104090C194388420DD9534662
:1047C0004144013B884500D9E8E0884200D8E5E053
:1047D00002235B429C464144E244019B2D04CE1AD5
:1047E00051462943059D4F462A000B04080C1B0C1B
:1047F0005A4345437B4378435B19170CFB189D4292
:1048000003D980256D02AC4660441D0C12041B04C4
:10481000120C28189B18864200D293E000D18EE03B
:1048200001231943A04BE318002B00DC99E04A0751
:1048300000D09EE05A46D20106D55A469B4B1A40FC
:1048400080239346DB00E318994A934268DD0123F5
:10485000029A984C1A400023944698460022C5E6D6
:1048600080224B46120313420AD05B46134206D104
:104870001A431203120BAC4688468E4CB6E64B46E2
:104880001A431203120BBC468A4CAFE603005A4689
:10489000283B9A4000239146984657E6584600F038
:1048A0000DFF203040E603005246283B9A4000218D
:1048B000934677E600F002FF20305FE6884500D29D
:1048C000C7E64B46DE075D0843465B081E4343468A
:1048D000DB079A46C2E60025924500D333E7039EE4
:1048E0005946B446E244B245AD416D424544EB18E9
:1048F0000139984507D2984200D97FE000D1BCE049
:104900001D1A8B461FE79845FAD1039D5545F2D9EC
:1049100043468B461D1A16E79B46CAE61500E7E696
:104920005A46C90852070A435B0590465C0D5A4631
:104930000123029952021940120B8C4656E6002BB5
:1049400000D16FE746444A1EB04529D9110086427E
:1049500000D065E7039A934200D061E762E7012146
:1049600049420120C21A382A21DD029B03409C469D
:1049700038E60F220A40042A00D15BE70A00111D25
:10498000914292415242934454E7474BE318002B23
:10499000E5DD01225242F2E71D00FAE69A461CE7E5
:1049A000B04239D86ED011003AE702933AE71F2A95
:1049B0003CDC20239B1A0C005846994098404B1E23
:1049C00099415B46D440D340204308431A00430733
:1049D00009D00F230340042B05D00100081D884295
:1049E0009B415B42D21813023AD50123029A01245B
:1049F0001A400023944698460022F7E502214942D6
:104A00008C46039DE344AC46E244AA45AD416D4269
:104A10004544ED182D1A96E68A1E03994D008D42E5
:104A2000894149424144761803958FE71F2040424F
:104A3000C31A5846D8400300202A28D040205D469B
:104A4000821A954029434A1E9141194307230022A7
:104A50000B4009D00F2300220B400800042BBDD1CE
:104A6000010053075202120BC9081943012388465B
:104A70000299002419408C46B8E55245BED88B46B1
:104A8000002560E6039D9D42C6D3110062E7002524
:104A9000D8E780225B4612031A43019B1203120BD4
:104AA0009C468846034CA1E5FF030000FFFFFFFE84
:104AB000FE070000FF070000F0B557464546DE46FA
:104AC0004E46E0B50C0398464E00230B87B0070016
:104AD00092469B46760DCD0F002E6BD06D4B9E42BD
:104AE00035D080245B46420F2404DB0014431C4372
:104AF000C3009946684BA3469C46002300276644A2
:104B0000029343461C035A00DB0F5046240B520D00
:104B1000984600D176E05F4B9A426DD08023410FDA
:104B20001B040B435C49E4008C461C43C30000207B
:104B300062444146B6186940721C0191944607438D
:104B40000F2F00D9B0E0554ABF00D25997465B46B7
:104B50000343994600D087E000239B460233082791
:104B60000293CEE742460192022867D0032800D183
:104B70000EE2012800D062E10023002400229946C1
:104B800001990140CDB2002112030B0D120B1B0540
:104B90001343434A240513401C436400ED07640893
:104BA0002C434846210007B03CBC90469946A2469B
:104BB000AB46F0BD034399464FD05B46002B00D176
:104BC00089E1584600F07AFD03000B3B1C2B00DD09
:104BD0007AE11D22D31A3A0001005C46DA40083916
:104BE0008C4013008F4023439B46B94600232D4E33
:104BF0000027361A029384E7534623432AD1002420
:104C0000022096E75346234320D0002C00D157E1E1
:104C1000200000F053FD03000B3B1C2B00DD49E19D
:104C20001D21CB1A51460200D9405346083A944000
:104C300093400C431B4A121A00207AE70125019B7E
:104C4000144C1D400023002299469CE700240022BA
:104C500001206EE7534603206BE700239B46013398
:104C60000427002602934CE7032381460C27029376
:104C700047E780220023002512039946054C82E76E
:104C80005C464B4602986FE75C464B46019502989E
:104C90006AE7C046FF07000001FCFFFFD05A000092
:104CA000FFFF0F800DFCFFFF4A464946170C1A0C08
:104CB0001B041B0C08041900000C41431500884616
:104CC00019007D4379430395894629001500454322
:104CD0004D44029545462D0CAA46029D5544A945D2
:104CE00006D98A46802149028946CA445146039121
:104CF000290C0491414609042D04090C8846290019
:104D0000250C24044144240C05912100414388468C
:104D1000210079438A466843414650448146080C45
:104D200048446F43824503D98021490289464F4454
:104D3000010C894639004944029141460F04049907
:104D40003F0C88460004C0198044414604915946EE
:104D50000F0C0904090C884659438A46390051430F
:104D6000894641464A435146090C8B467B43D2183B
:104D70005A44934203D980235B029B46D94451464F
:104D80000904090C8A46414661437C43130C120412
:104D90004B445244A1468A463C0041466C434D4335
:104DA00051464D440F0C7D19A94503D98021490274
:104DB00088464444049F0399B84641448B46834542
:104DC000804141428846514608042F04000C3F1898
:104DD0005846029910188946904292414F44BA466B
:104DE000524299469346C244D144CB448F42BF417C
:104DF000C245894199459B41934592417F42494231
:104E00002D0C52420F435B4213437F19FF185B4640
:104E10003C19DB0D059A64021C43430213435D1EDB
:104E2000AB415A46C00D034352021343E20156D52B
:104E300001205A0803401343E207134364085A4809
:104E4000604400284DDD5A0709D00F221A40042A79
:104E500005D01A1D9A429B415B42E4181300E201FF
:104E600004D58020514AC00014406044504A90420A
:104E700000DDE3E60125DB0862071A436402019BBB
:104E80009146220B4405640D1D407CE68022594664
:104E90001203114208D0144206D122431203120B0E
:104EA00045469946434C6EE65B461A431203120B85
:104EB000404C68E603005446283B9C400023B9E67A
:104EC00000F0FCFB2030A6E60300283B9F400023B7
:104ED000BB4699468AE600F0F1FB203074E6B44602
:104EE000ADE701252A1A382A06DD019B00241D4062
:104EF00000230022994646E61F2A21DC20252000B7
:104F0000AD1A1E00AB40A840D6405D1EAB413043F9
:104F10001843D440430709D00F230340042B05D086
:104F20000300181D98429B415B42E418230221D5DF
:104F30000125019B01241D4000230022994622E601
:104F40001F2521006D42281AC1400800202A1DD0CB
:104F50005F35AA1A944023435C1EA34107250343EF
:104F60001D400022002D09D00F2200241A401800F5
:104F7000042AD6D1030065076402220BDB082B4309
:104F800001259946019B00241D40FCE50024E2E731
:104F9000802201251203224301991203120B0D40B6
:104FA0009946044CEFE5C046FF030000FFFFFFFEFB
:104FB000FE070000FF070000F0B54646D6464F4604
:104FC0000C03C0B5CD0F4E00610A440F0C43C10065
:104FD0005800400D84468A460F001903500F490AB5
:104FE0000143C648760DA846DB0FD200844500D1A8
:104FF000D8E001204340AB4200D1A6E06046351A1C
:10500000002D00DC05E1002810D10B00134300D176
:10501000D7E06B1E002B00D04BE153469F1ABA45D8
:105020008041641A4042241A01261EE0B34B9E427E
:1050300048D080231B041943382D00DD19E11F2DB2
:1050400000DD4CE120230F005B1B10009A409F40C5
:10505000E840531E9A41E940074317435346DF1B7C
:10506000611ABA45A44164420C1B230200D4C5E076
:105070006402650A002D00D1F6E0280000F01EFB56
:105080000300083B1F2B00DDE9E020223C00D21A80
:105090009D40D4409F4025439E4200DDDBE09E1BA7
:1050A000731C1F2B00DD0AE120223800D21A2900D0
:1050B00097402C009140D8407A1E9741DC40002652
:1050C00001430F437B0709D00F233B40042B05D03E
:1050D0003B1DBB42BF417F42E4191F00230225D57F
:1050E000864B01369E4200D1AFE0854B01251C4026
:1050F00043466207FF08640276051743240B760DCA
:105100001D4000212403230B0C0D7E4A24051C4363
:105110001440330523435B00ED075B082B43380045
:1051200019001CBC90469946A246F0BD0125434695
:105130006207FF081743E4081D40704B9E4236D0BB
:1051400024037605240B760DDBE76346F31A002B68
:1051500000DC94E06046002835D068488642B1D033
:1051600080273F043943382B00DCFDE00A43170059
:1051700000217A1E974157445745804109194442FE
:105180000C1923023AD55D4B01369E4200D14BE10A
:1051900001225B4B1C407B0817401F43E20717436B
:1051A00064088FE70800104300D024E721E72300BC
:1051B0003B4300D1B9E18022120314432403240BA2
:1051C0009FE72E007EE70800104300D1CAE0581E7A
:1051D0008446002800D0E7E05244524580416418DC
:1051E0004042241817000126230207D50226CFE7E4
:1051F00064462C4300D1B3E12C0067467B0700D006
:1052000062E76307FF081F4301254346E4081D408A
:1052100093E7002D78D1751C6D056D0D012D00DC17
:10522000F2E05046801A8245BF41651A7F42ED1B6D
:105230008446280200D48CE05046171ABA429241A4
:105240000C1B5542651B984614E701254346002474
:105250001D40002755E72A4CF61A2C4032E73D0046
:1052600028388540002717E7380000F027FA20305B
:1052700006E70A43170000217A1E9741EEE6002B4D
:1052800000D0E5E0731C9C465B055B0D012B00DC48
:105290009FE01A4B9C4500D1C5E0524452458041E5
:1052A000641840422418E70752081743640866460A
:1052B00008E71248854200D185E01D00BCE62900C0
:1052C0001F3EF140202B00D17FE04022D31A9D40A9
:1052D0002F437D1EAF4100240F4300268EE72B0095
:1052E0000F00203BDF40202D71D040235D1BA940E3
:1052F0000A43511E8A4100211743AFE6FF07000011
:10530000FFFF7FFFFFFF0F80002E3ED0B34EB4455E
:1053100045D0802636046D423443382D00DDA8E0A8
:105320001F2D00DD1FE1202627005046761BB740C9
:10533000E84007435046B040461EB041EC40384379
:10534000171ABA4292410C1B5242A41A664698465A
:105350008BE6644667462C4300D08BE6002500268A
:105360000027EAE61E00ADE61F2B60DC2027F81AB6
:105370000F00844687401000D840074360468240B3
:10538000501E8241D9401743F5E626005046064399
:1053900005D0ED43002DD3D0904EB445BDD10C00C7
:1053A0001700664698468DE68C4883420BD06346CC
:1053B000D9E6002D00D096E00800104300D1E2E0CD
:1053C0000C0017009846854E7CE6002580E70021FA
:1053D0008EE7230050460343002E00D0A8E0002BA8
:1053E00000D1DEE00B00134300D16BE6524452457E
:1053F00080416418404224181700230200D4FDE6BF
:10540000774B66461C405DE6250050460543002E5E
:10541000CFD1002D4FD10C00144300D1A0E00C00DF
:10542000170098464EE666460024002785E61F00D2
:105430000800203FF8400700202B00D18EE04020DC
:10544000C31A99400A43511E8A410021174392E62C
:10545000002E14D126005046064362D0DB43002BB9
:105460005CD187189742924164185242A41866464C
:1054700087E650462043441EA041002460E7574E73
:10548000B4454ED0802636045B423443382B00DDD1
:105490007FE01F2B00DD8BE0202627005046F61A08
:1054A000B740D84007435046B040461EB04107437E
:1054B000DC40BF18D6E70D00154300D102E6504688
:1054C000801A8245BF41651A7F42ED1B844628023F
:1054D00000D48DE65046171ABA4292410C1B524234
:1054E000A41A9846EEE50D00154300D16BE750462F
:1054F0006707C00807438020E4080003044207D080
:10550000CD08054204D12C009846D70849070F431F
:105510007B0FE4001C43FF00304ED3E52F4EB44513
:10552000B4D10C0017006646CCE500270024E8E55E
:10553000002B39D00B00134300D144E7C0086707A4
:1055400007438020E40800030442E1D0CB08034273
:10555000DED1D70849070F431C00D9E7002171E7C6
:1055600000250027E9E52E002700203EF740202DEA
:105570002FD04026751BAC4050462043441EA0410E
:1055800000243843DCE6802400252403134E002742
:10559000D3E5504620430700781E87410024BF18FA
:1055A00060E70C0017008DE50C0017000B4E89E535
:1055B0001E002700203EF740202B0CD04026F31A77
:1055C0009C4050462043441EA04107430024BF187E
:1055D00048E70024D0E70024F3E7C046FF070000B7
:1055E000FFFF7FFF30B5134D0A034B00120B5B0D1D
:1055F000C90F0024AB4210DD0F4CA3420FDC802406
:105600000E4D64032243ED1A1F2D0BDD0C48C31A07
:10561000DA405442002900D11400200030BD094B6B
:10562000CC18FAE7084CE840A44663449A40024389
:10563000EFE7C046FE0300001D0400003304000035
:1056400013040000FFFFFF7FEDFBFFFF10B5041EFA
:1056500028D000F033F8154B154A1B1AD21A1F2A0E
:1056600015DD144AD21A9440002224035B05240B52
:105670005B0D0021100024030A0D240B12052243A8
:105680000D4C1B05224013435B00590810BD21003F
:1056900091400A000B21081AC4405B052403240B27
:1056A0005B0DE6E7002300240022E2E71E04000071
:1056B0003304000013040000FFFF0F801C210123AE
:1056C0001B04984201D3000C10391B0A984201D3E5
:1056D000000A08391B09984201D30009043902A2C3
:1056E000105C40187047C04604030202010101012A
:1056F000000000000000000070B500260C4D0D4CAD
:10570000641BA410A64209D1002600F001FA0A4D3C
:105710000A4C641BA410A64205D170BDB300EB581F
:1057200098470136EEE7B300EB5898470136F2E7A9
:105730001C5B00001C5B00001C5B0000205B000089
:1057400010B5034B0100186800F00EF810BDC046FC
:1057500058000020002310B59A4200D110BDCC5C47
:10576000C4540133F8E70000032370B5CD1C9D43FA
:10577000083506000C2D1ED20C25A9421DD830007C
:1057800000F062F8254A14682100002919D1244C40
:105790002368002B03D1300000F044F8206029007A
:1057A000300000F03FF8431C2CD10C233000336054
:1057B00000F04BF803E0002DDFDA0C23336000200B
:1057C00070BD0B685B1B1AD40B2B03D90B60CC1874
:1057D000256003E08C420ED163681360300000F056
:1057E00034F8200007220B30231D9043C31AE7D062
:1057F0005A42E250E4E74B6863600C00EEE70C00AD
:105800004968C2E70323C41C9C43A042E0D0211A8C
:10581000300000F007F8431CDAD1C6E7180E00206C
:105820001C0E0020002370B5064C05000800236004
:10583000FEF7F6F9431C03D12368002B00D02B6040
:1058400070BDC0466812002070477047010000001C
:10585000020000000400000008000000001000002A
:105860000020000000400000008000000000010057
:10587000000002000000040000000800002C0042AC
:10588000003000420034004200380042003C004238
:105890000008001000200040008000006611000099
:1058A000E610000072110000F411000078120000F0
:1058B000FE12000002160000B615000004160000DB
:1058C00052160000A0160000E61600009217000015
:1058D0005E17000094170000CA17000000180000AF
:1058E000361800001213141516000000461E0000A2
:1058F00092200000922000009220000092200000E0
:1059000092200000922000009220000092200000CF
:1059100092200000922000009220000092200000BF
:105920009220000092200000922000002E1E000015
:10593000922000009220000092200000922000009F
:10594000922000009220000092200000922000008F
:10595000922000009220000092200000922000007F
:105960009220000092200000922000003E1E0000C5
:10597000922000009220000092200000922000005F
:10598000922000009220000092200000922000004F
:10599000922000009220000092200000922000003F
:1059A000922000009220000092200000361E00008D
:1059B0004E1E0000161E0000261E00001E1E0000C7
:1059C0000200000003000000280000002900000081
:1059D00004000000050000000600000007000000B1
:1059E0002000000021000000220000002300000031
:1059F0002400000025000000260000002700000011
:105A000008000000090000000A0000000B00000070
:105A100000080042000C0042001000420014004246
:105A200000180042001C0042CE2E00008A2E00000A
:105A3000B62E0000AA2E0000C22E0000802E00000C
:105A4000000C130004050608CE330000CA33000022
:105A5000CA3300002C3400002C340000E233000074
:105A6000D4330000E83300001A340000B0350000E1
:105A700090350000903500001C360000A235000073
:105A8000BE35000094350000CC3500000C36000017
:105A9000484600002A460000E44500000245000098
:105AA000E44500001C460000E445000002450000FB
:105AB0002A4600002A4600001C460000024500005D
:105AC000FA440000FA440000FA4400006048000074
:105AD000A84C0000684B0000684B0000644B0000BD
